:020000040800F2
:10000000881D002045010008C9590008DD55000879
:10001000C5590008191300086D70000800000000A1
:10002000000000000000000000000000456500081E
:100030000514000800000000615F00084765000823
:100040005F0100085F0100085F0100085F01000810
:100050005F0100085F0100085F0100085F01000800
:10006000E51700085F010008EF1700085F010008AE
:100070005F0100085F0100085F0100085F010008E0
:100080005F0100085F0100085F010008C56F0008FC
:10009000D56F00085F0100085F010008F91700082C
:1000A0005F0100085F0100085F0100085F010008B0
:1000B0005F010008596600085F0100085F01000841
:1000C0005F0100085F0100085F0100085F01000890
:1000D00005600008196C00085F010008296C000821
:1000E0005F0100085F0100085F0100085F01000870
:1000F0005F0100085F0100085F0100085F01000860
:100100005F0100085F0100085F0100085F0100084F
:10011000DD6800085F0100085F0100085F0100085A
:100120005F0100085F0100085F0100085F0100082F
:10013000DFF80CD000F018FE00480047A97D000849
:10014000881D00200648804706480047FEE7FEE776
:10015000FEE7FEE7FEE7FEE7FEE7FEE7FEE7FEE777
:100160000166000831010008202A04DB203A21FA48
:1001700002F00021704721FA02F3D040C2F12002C0
:10018000914008431946704740EA01039B0703D09A
:1001900009E008C9121F08C0042AFAD203E011F8C6
:1001A000013B00F8013B521EF9D27047D2B201E088
:1001B00000F8012B491EFBD270470022F6E710B56C
:1001C00013460A4604461946FFF7F0FF204610BDC5
:1001D000421C10F8011B0029FBD1801A704703460E
:1001E00011F8012B00F8012B002AF9D118467047AD
:1001F00030B505460020034600E05B1C934205D263
:10020000EC5CC85C201A01D1002CF6D130BD000096
:100210000FB400B58DB010A909900B9000914FF06C
:10022000FF300A9000200C90054806900548079082
:100230006A4609A80F9900F0B1FB0DB05DF814FBF8
:10024000B9090008D709000830B50B46014600205F
:100250002022012409E021FA02F59D4205D303FA88
:1002600002F5491B04FA02F52844151EA2F1010209
:10027000F1DC30BD2DE9F05F0546002092469B463B
:1002800088460646814640241BE0284641464746AC
:100290002246FFF769FF53465A46C01A914110D3D0
:1002A00011461846224600F071FD2D1A67EB010831
:1002B0004F4622460120002100F068FD17EB00099F
:1002C0004E41201EA4F10104DFDC484631462A4697
:1002D0004346BDE8F09F2DE9FF4F1C4681B0002149
:1002E000D4E9016791464FF0FF358A468846A169F7
:1002F0006D1C02988847216A834688470028F6D1FA
:10030000BBF1FF3F0CD026F4C066002F1ADD70064B
:1003100015D5BBF12B0F0AD0BBF12D0F0FD104E087
:100320004FF0FF3005B0BDE8F08F46F48066A1695C
:100330006D1C029888477F1E8346002F02DDBBF1AB
:10034000300F03D0B9F1000F2AD025E0A1696D1C50
:1003500046F400767F1E029888478346002F05DD0D
:10036000BBF1780F06D0BBF1580F03D0B9F1000FE5
:1003700010D011E0B9F1000F02D0B9F1100F0BD17C
:10038000A1696D1C26F400767F1E0298884783467B
:10039000102000E0082081464FEAE970009017E045
:1003A0000A20F8E74346AAFB092803FB0980DDF889
:1003B00000C07F1E0AFB0C0112EB0B0A41EBEB782D
:1003C000A16946F4007605F1010502988847834645
:1003D000002F06DD4946584600F0FEFC5FEA000BA0
:1003E000E0D5E16902988847B00502D46FF00100BA
:1003F00098E7F00718D1700610D57005514605D55D
:100400000023D1EB030163EB080200E042462068C1
:10041000031D23600068C0E9001205E02068011D8B
:1004200021600068C0E900A828467BE72DE9FF5F4E
:100430001D464FF0FF3BD5E9014691465F464FF020
:100440000008A9697F1C01988847296A8246884765
:100450000028F6D1BAF1FF3F0CD024F4C064002E7E
:1004600019DD600614D5BAF12B0F09D0BAF12D0FA2
:100470000ED103E0584604B0BDE8F09F44F4806418
:10048000A9697F1C01988847761E8246002E02DDEE
:10049000BAF1300F03D0B9F1000F26D032E0A969CC
:1004A000761E44F400747F1C019888478246002E13
:1004B00005DDBAF1780F06D0BAF1580F03D0B9F1C3
:1004C000000F10D01EE0B9F1000F02D0B9F1100FEB
:1004D00018D1A969761E24F400747F1C01988847FE
:1004E0008246102002E0082000E00A20814609E050
:1004F00008FB0908A969761E44F400747F1C019862
:1005000088478246002E05DD4946504600F064FCCF
:100510000028EDDAE96901988847A00502D46FF058
:100520000100A8E7E00725D1600613D5600502D5D4
:10053000C8F1000000E0404629680A1D2A600968E9
:10054000220501D5087015E0220701D5088011E0C9
:1005500008600FE02868011D29600068210502D5A8
:1005600080F8008006E0210702D5A0F8008001E0B5
:10057000C0F8008038467EE72DE9FF5FD2E901A789
:100580004FF00008916999461446DDF838B04646A8
:1005900001988847054659EA0B0005D009E0A16992
:1005A000761C019888470546216A28468847002816
:1005B000F5D1681C03D05FEACA7005D015E04FF092
:1005C000FF3004B0BDE8F09F2068011D2160D0F825
:1005D00000800AE05FEACA7001D108F8015BA169F6
:1005E000761C7F1E019888470546002F1ADD681C7F
:1005F00018D0B9F1000F0DD0E81705EBD06042110B
:1006000020F01F0059F822102A1A012090400142C0
:10061000E0D107E0BBF1000FDCD1216A2846884712
:100620000028D7D0E16901988847BBF1000F07D1B6
:10063000002E05DD5FEACA7002D1002188F80010A3
:10064000A068B84203DDBBF1000F03D017B16FF013
:100650000100B6E73046B4E72DE9FF4F087881B0D6
:100660009946FF2805D0491C2D2804D000240023DA
:1006700008E000230BE00124F9E703EB830300EB20
:100680004303491C0878FF28F7D104B15B420020DE
:100690000090147801462D2C01D02B2C04D1521C33
:1006A0002D2C12D00024009400251678FF2E0ED099
:1006B0000A24A0FB04C801FB0481002700FB0711EA
:1006C000521C16EB0C006941EFE70124EBE799445B
:1006D00050EA01020ED00024AA4D2646DFF8A88277
:1006E00000F07BFD82468B46B9F1000009DAC9F1C2
:1006F00000071BE001980021C0E9001105B0BDE82A
:10070000F08F074612E0F80707D022462B46304606
:10071000414600F018FA0646884622462B46104607
:10072000194600F010FA04460D467F10002FEAD15A
:10073000B9F1000F324643465046594602DA00F0FE
:1007400074FA01E000F0FFF9009A0AB181F000416B
:10075000019AC2E90001D1E72DE9FF4F1F468DB094
:10076000D7E901464FF0FF382E2045464FF00009EB
:100770000B90B9696D1C0E988847396A8246884784
:100780000028F6D1BAF1FF3F0AD024F4D064002E3D
:1007900011DDBAF12B0F08D0BAF12D0F0BD102E009
:1007A000404611B0ABE744F48064B9696D1C0E9803
:1007B00088478246761E6946600501D52D2000E0F7
:1007C0002B208DF8000001F1010B0DF1200809E04C
:1007D000B9696D1C0E98884782460F9844F40074DE
:1007E000761E0560002E02DDBAF1300FF0D00B99B5
:1007F0008A453ED144F0800406E00F99681CA9F1B7
:10080000010944F400740860B9696D1C761E0E98E5
:10081000884782463028F0D02BE00B998A4505D1D5
:10082000200603D444F08004761E18E0504606F0FB
:1008300065FD08B30DF11301761E44F400748B4579
:1008400008D2AAF130000BF8010B200607D5A9F158
:10085000010003E0200602D409F101008146A00551
:1008600002D50F99681C0860B9696D1C0E988847FD
:100870008246002ED1DC53E0002E51DDBAF1650F27
:1008800002D0BAF1450F4BD1A00549D5B9696D1C0D
:1008900024F44074761E0E9888478246002E0CDDA4
:1008A0002B2804D0BAF12D0F07D144F48074B96914
:1008B0006D1C0E9888478246761EE00501D52D21D5
:1008C00000E02B2108F8011BCDF82C8021E00DF170
:1008D0002901761E44F4007488450CD2AAF1300038
:1008E00010F0FF0088F8000002D10B99884509D963
:1008F00008F1010806E0E00501D5244801E042F2D4
:100900000F708146B9696D1C0E98884782460F9812
:100910000560002E04DD504606F0F0FC0028D6D11C
:10092000F9690E988847FF208BF8000088F80000CE
:100930000020069007904B466A4608A906A8FFF7D4
:100940008BFEA00502D46FF001002AE714F0240FFB
:100950000AD0E00714D1DDE906123868031D3B60B8
:100960000068C0E900120BE0DDE9060100F041FC7F
:100970000146E00704D13868021D3A600068016052
:1009800028460EE7000024400000F03FF1D8FFFFAA
:10099000026811441378016018467047D160044919
:1009A00051610449116200211161114600F022BA1F
:1009B00091090008CF0D0008426842B1016811F8A2
:1009C000013B23B1521EC0E90012184670470121B5
:1009D000C160881E704742685AB1C368016843B954
:1009E00083688B4205D0491E521CC0E900120020CA
:1009F00070474FF0FF3070472DE9FE4F804681EA87
:100A00000300C00F0C46009021F0004123F0004588
:100A1000B8EB0200A94105D24046214690461C464B
:100A20000B46024623F00040104347D0270DC7F382
:100A30000A00C3F30A510290401A019040286BDA71
:100A4000C3F3130040F4801B0098924620B10023AA
:100A5000D2EB030A63EB0B0B01985946C0F140023D
:100A6000504600F093F906460D4650465946019A05
:100A700000F09BF910EB08006141002487EA115255
:100A800084EAE7731A4340D0009A62B3019A012ABC
:100A90004FEA075215DC001B61EB02014FF00042E8
:100AA00002EA0752CDE90042001C41F580113246AE
:100AB0002B4600F044FB03B0BDE8F08F40462146D2
:100AC000F9E7001B61EB0201001C41F580130018DF
:100AD0005B412018A2F5001747EB030140EAD570EF
:100AE000B6196D4111E06D084FEA360645EAC0754A
:100AF0004FEA0752001B61EB0201001C41F5801117
:100B000049084FEA30000019514132462B4603B0E4
:100B1000BDE8F04F00F004BB009801224000002324
:100B2000D0EB020263EBE073009821464FEAE074D9
:100B3000B8EB000061EB0401E9E783F000435BE7F9
:100B400081F0004158E72DE9FE4F81EA030404F0EB
:100B5000004421F0004100944FF0000B23F00043CB
:100B600050EA01045ED052EA03045BD0C3F30A5496
:100B7000C1F30A552C44A4F2F3340194A0FB0254AF
:100B8000C1F3130141F48011C3F3130343F4801341
:100B900001FB024400FB034E840A970A44EA815495
:100BA00047EA8357A4FB076802958D0A05FB078572
:100BB0004FEA932C04FB0C542705029D4FEA06587C
:100BC00047EA1637B5EB08056EEB070C870E920E59
:100BD00047EA811742EA8312A7FB0201B6EB0B0139
:100BE00064EB00042B0D43EA0C335E1844EB1C50FD
:100BF000DA465146E7FB0201C5F313044FEA0B3313
:100C000043EA14534FEA0432019C43EA0603A4F179
:100C10000C040294009CCDE900B400F090FA03B0FB
:100C2000BDE8F08F00200146F9E72DE9F04D81EA9B
:100C3000030404F0004B21F0004514464FF0000A75
:100C400023F0004150EA050220D054EA01021DD0F1
:100C5000C5F30A570246C5F31303C1F31300C1F3EA
:100C60000A5640F4801543F48013A7EB0608101BC6
:100C7000D64608F2FD3873EB050002D308F10108EF
:100C800001E092185B41B8F1000F03DA0020014641
:100C9000BDE8F08D00204FF48011064684460EE03A
:100CA000171B73EB050705D3121B63EB0503064304
:100CB0004CEA010C49084FEA300092185B4150EAB7
:100CC0000107EDD152EA030012D082EA040083EA60
:100CD0000501084305D0101BAB4106D201220023B9
:100CE00006E000224FF0004302E06FF001025310D3
:100CF0001AEB06004CEB085110EB0A0041EB0B011C
:100D0000BDE8F04D00F00CBAC1F30A52C1F3130173
:100D100040F2FF3341F480119A4202DA002001468A
:100D2000704740F233439A42A2F2334202DC52420D
:100D3000FFF71ABA00F02AB830B5041E71F10004AA
:100D400004DB4FF00044404264EB0101141E73F1D8
:100D5000000405DB1C464FF00043524263EB0403E2
:100D6000994208BF904230BD064C074D06E0E0684E
:100D700040F0010394E8070098471034AC42F6D3E2
:100D8000FFF7DAF9D8CE0008F8CE0008202A04DBF5
:100D9000203A00FA02F1002070479140C2F120038E
:100DA00020FA03F3194390407047202A06DBCB1743
:100DB000203A41FA02F043EAE07306E041FA02F316
:100DC000D040C2F120029140084319467047C0B29A
:100DD0004FF4F05100F02ABA3A2800D2303820F00F
:100DE0002002412A01D3A2F13700884201D34FF0FB
:100DF000FF3070472DE9F34F8BB04FF0000801F141
:100E00000C000C464FF0010B46460DF1080A01900C
:100E10006269012101989047051E2DD0252D2CD007
:100E2000216A8847C0B16269012101989047216A0F
:100E300088470028F7D1411E62690198904700E079
:100E4000761CA1690B988847216A88470028F7D14A
:100E5000E1690B988847DBE7A1690B98884707464B
:100E6000A84201D1761CD3E7E1690B9888477F1C23
:100E700002D1B8F1000F6FD046E1002762693D460C
:100E80003946019890472A2804D1626901210198C6
:100E900090470125DFF8849262690121019890470B
:100EA000A0F130010A290AD24F45E5DC07EB8701A2
:100EB00000EB4107303FDFD445F01005ECE7E906D1
:100EC00001D46FF000476C280AD04C2814D0682851
:100ED00015D06A280DD074281CD07A281AD01DE0AD
:100EE00062690121019890476C2802D045F0040501
:100EF00014E045F002050DE045F020050AE06269C6
:100F0000012101989047682802D045F0080505E0C6
:100F100045F400656269012101989047C4E90157D1
:100F200065283DD019DC58287AD00CDC452837D00C
:100F300004DC252826D0412831D131E046282FD0A5
:100F400047282CD12CE05B2877D0612828D0632853
:100F50007CD0642823D15AE0D0E06F2848D008DC48
:100F600066281DD067281BD0692821D06E2816D18D
:100F700027E0702845D0732868D0752847D0782896
:100F80000DD14DE0A1690B988847054625283FF40F
:100F900069AFE1690B9888476D1C3FF46AAFB3E015
:100FA00023466A466FF001000B99FFF7D5FB9EE0E0
:100FB00045F040006060A80723464FF0000236D499
:100FC0003EE0E8077FF447AF2068011D216000681C
:100FD000290501D506701BE7290701D5068017E70B
:100FE000A90703D5F117C0E9006111E706600FE713
:100FF00045F040006060A80723464FF0080216D471
:101000001EE040F60E0125EA0100606016E045F0A2
:1010100040006060A80723464FF00A0207D40FE0A3
:1010200045F040006060A80708D5234610226FF005
:1010300001000B99FFF74FF959E007E02346102212
:101040006FF001000B99FFF7F1F950E04FF0000944
:101050004F464B46632802D05B2806D040E0E806A6
:1010600001D40120A06001273AE0626901210198C2
:1010700090475E2805D14FF0010962694946019801
:101080009047216939B900210A46534643F8212087
:10109000491C0829FADBB0B3216969B9C11700EB13
:1010A000D16253110AEB830122F01F02821A012040
:1010B0000B68904003430B606269012101989047DF
:1010C0005D28E8D1B9F1000F09D00020514651F850
:1010D0002020D24341F82020401C0828F7DB02AB37
:1010E000224600976FF001000B99FFF745FA0028A0
:1010F0000CDA401C08D1BBF1000F05D04FF0FF30D7
:101100000DB0BDE8F08FFFE74046F9E7E90701D1F0
:1011100008F1010806444FF0000B79E6CCCCCC0C6A
:1011200010B5141E73F1000408DA401C41F10001EF
:1011300092185B411A4301D120F0010010BD2DE946
:10114000F04D92469B4611B1B1FA81F202E0B0FA3D
:1011500080F220329046FFF719FE04460F4640EA1F
:101160000A0041EA0B0153465A46084313D0114680
:1011700053EA010019D0C8F140025046FEF7F4FFCF
:1011800005460E46504659464246FFF7FFFD0843C6
:1011900005D0012004E020463946BDE8F08D00204E
:1011A000054346EAE0762C4337430A986305E40A90
:1011B000A0EB08000022FD0A44EA47540A3002D599
:1011C00000200146E9E7010510196941DDE90845FC
:1011D00000196941BDE8F04DA2E70EB540F2334277
:1011E00002920022CDE900221346FFF7A8FF03B0C8
:1011F00000BD01F0004330B421F0004150EA01028B
:1012000006D00A0DA2F56072C1F31301002A02DCB8
:1012100030BC00207047440F44EAC104C100E0180C
:1012200030BC00EBC25000F015B800007F2801D997
:10123000002208E0064A02EB5002C007127800D1F3
:10124000120902F00F020120904008407047000090
:1012500024CE00080029A8BF7047401C490008BFE1
:1012600020F00100704710B4B0FA80FC00FA0CF0D6
:1012700050EA010404BF10BC704749B1CCF120040E
:1012800021FA04F411FA0CF118BF0121214308439B
:10129000A3EB0C01CB1D4FEA00614FEA102042BFC7
:1012A000002010BC704700EBC35010440029A4BFBD
:1012B00010BC7047401C490008BF20F0010010BC62
:1012C000704770B58C1810F8015B15F0070301D159
:1012D00010F8013B2A1106D110F8012B03E010F899
:1012E000016B01F8016B5B1EF9D12B0705D40023BC
:1012F000521E0DD401F8013BFAE710F8013BCB1A5E
:10130000921C03E013F8015B01F8015B521EF9D552
:10131000A142D8D3002070BD00BFFEE710B500BFCA
:10132000064803F02FFF00F021002128F8D00B22FF
:1013300003A1024804F01EF910BD00003004002093
:101340000D0A5278204572726F72210002490978A5
:101350008143014A11707047CE02002010B501464A
:101360001E480078FE2837D11C484078FC2833D12D
:101370000023002204E01948805C1844C3B2521CC8
:10138000082AF8D343BB1548807808701348C07802
:1013900000F00F00114CE478241104EB840400EBFE
:1013A000440048700D48007900F00F000B4C247980
:1013B000241104EB840400EB440088700748407952
:1013C00000F00F00054C6479241104EB840400EB59
:1013D0004400C870012010BD0020FCE7C6020020B8
:1013E0000148007870470000CE02002010B50822A6
:1013F0000249034804F050F810BD0000C602002066
:10140000300400207047000008B501F03DFE0D20BB
:1014100001F010FF00220C2105A001F0B7FE0A2008
:10142000034606226A210090044801F0DFFD08BD52
:10143000B0B2BABDCEDEC8CBBBFA0000348900081A
:101440003EB504460D462A4648A1684605F06EFEA4
:10145000072C1AD2DFE804F088041A30465C7200C8
:10146000062001F0E7FE1222002141A001F08EFECD
:10147000092001F0DFFE12221021684601F086FEED
:1014800080221D21002001F0CFFD6DE0062001F03B
:10149000D1FE1F22002137A001F078FE092001F0C3
:1014A000C9FE1F221021684601F070FE80222A2109
:1014B000002001F0B9FD57E0062001F0BBFE2C2210
:1014C00000212DA001F062FE092001F0B3FE2C22C4
:1014D0001021684601F05AFE80223721002001F0D9
:1014E000A3FD41E0062001F0A5FE1222412123A028
:1014F00001F04CFE092001F09DFE122251216846A8
:1015000001F044FE80221D21002001F08DFD2BE022
:10151000062001F08FFE1F22412119A001F036FEA6
:10152000092001F087FE1F225121684601F02EFE9E
:1015300080222A21002001F077FD15E0062001F02D
:1015400079FE2C2241210FA001F020FE092001F09C
:1015500071FE2C225121684601F018FE80223721AD
:10156000002001F061FD00BF00BF3EBD256400000A
:1015700054313A0054323A0054333A0054343A0069
:1015800054353A0054363A0010B5092001F052FEA5
:1015900037220E21084801F0F9FD092001F04AFE2A
:1015A00037225421054801F0F1FD80223721002027
:1015B00001F03AFD10BD00003E000020490000206F
:1015C00010B580221021002001F02EFD80221D2167
:1015D000002001F029FD80222A21002001F024FDB5
:1015E00080223721002001F01FFD272210213F20FB
:1015F00001F032FD10BD000010B55148007800F038
:10160000010010B34E48007820F001004C490870EA
:101610004C480078032803DA00204B4908700CE09E
:1016200048480078082803DD05204749087004E091
:1016300044480078C01E444908704348007800F0D0
:1016400093F84048007800F0A7F83D48007800F093
:101650000200002865D03A48007820F0020038499E
:1016600008703A48007800F0010050B1374800781F
:1016700020F0010035490870354801680120FFF766
:10168000DFFE3248007800F0020050B12F480078A9
:1016900020F002002D4908702E4801680220FFF753
:1016A000CFFE2A48007800F0040050B127480078A7
:1016B00020F0040025490870274801680320FFF73F
:1016C000BFFE2248007800F0080050B11F480078A3
:1016D00020F008001D490870204801680420FFF729
:1016E000AFFE1A48007800F0100050B1174800789B
:1016F00020F0100015490870194801680520FFF70F
:101700009FFE1248007800F0200050B10F4800788A
:1017100020F020000D490870124801680620FFF7EC
:101720008FFE0748007800F0040038B104480078C4
:1017300020F0040002490870FFF726FF10BD0000EA
:101740003C00002021000020200000203D0000205F
:1017500024000020280000202C0000203000002061
:10176000340000203800002038B50446012C00DA8F
:101770000124052C00DD05240A2004EB8401054A20
:10178000009002EB81000A230622762101F02EFC54
:1017900038BD00003489000838B504460A2094FB9F
:1017A000F0F000EB80000E494518062005230022CA
:1017B0006A210090284601F019FC0A2094FBF0F100
:1017C00000FB114000EB8000054945180620052369
:1017D00000226F210090284601F008FC38BD00006F
:1017E000AC89000810B5042001F0EAFE10BD10B568
:1017F000102001F0E5FE10BD10B5402001F0E0FE24
:101800004FF4807001F0DCFE4FF4007001F0D8FE60
:1018100010BD000010B504460620194908700023C9
:101820001A460121164804F099FD20201449087039
:10183000200C4870200A8870CC7000231A460421BE
:101840000F4804F08BFD00BF06F0A6FF05200C49F1
:10185000087002230B4A1946094804F07FFD094825
:10186000407800F001000028EED1042004490870FF
:1018700000231A460121024804F070FD10BD00004B
:10188000E80C0020EC0D00207CB5002540F2FF168E
:1018900000F082FE3FE0A81900EBD0714C10E00090
:1018A0000822694600F082FE0098B0F5805F31D3CF
:1018B0000098B0F1807F2DD20198B0F5805F29D3D8
:1018C0000198B0F1807F25D21F49009808600198E7
:1018D0004860641CE0000822694600F067FE00983A
:1018E000B0F5805F12D30098B0F1807F0ED20198DE
:1018F000B0F5805F0AD30198B0F1807F06D212491B
:101900000098086001984860254604E0E0000F490F
:10191000086002E0661EB542BDDD00BF0A484068AF
:101920000B49086000200B4981F82D040A4981F811
:101930002D040AA006F0B4FE0348426801680DA019
:1019400006F0AEFE7CBD0000EC020020F402002098
:10195000F802002024110020541500200D0A204612
:101960006C61736820696E697469616C697A65215C
:10197000000000000D0A2053543A307825782C20BE
:1019800053503A307825780010B5104890F82D045F
:1019900018B90F4890F82D0410B14FF0FF3010BD6A
:1019A0004FF480500B490860486000200A490860E5
:1019B0004FF4805009490860002000F0F1FD4FF419
:1019C000805000F0EDFD0020E9E700002411002028
:1019D00054150020EC020020F4020020F802002040
:1019E000014619B1002081F82D0400210020704724
:1019F0003EB505460020244908702448046800BF0D
:101A0000B4F5805F01D1224C01E0A4F5806404228A
:101A100002A9204600F0CAFD9DF80B009DF80A10AF
:101A2000CDE900109DF809309DF80820214619A045
:101A300006F036FE9DF80800FE2804D11348046025
:101A40002C6000203EBD9DF80800FD2806D09DF8C2
:101A50000800FC2802D04FF0FF30F3E7144800687C
:101A6000B042CDD1042202A9204600F09FFD9DF88E
:101A70000800FE2804D1054804602C600020E1E73E
:101A80004FF0FF30DEE70000FC020020F8020020EB
:101A900000FCFF000D0A205A4A3030333A203078DB
:101AA00025782C2025782025782025782025780079
:101AB000EC0200207CB505463FA006F0F1FD42484F
:101AC0004268016841A006F0EBFD0020454908701E
:101AD0003D484068444904460860214643A006F05A
:101AE000DFFD484890F82D0400281CD04548006AC6
:101AF000A04218D14348406A50B942482830286073
:101B000002203849087040A006F0CAFD00207CBDC4
:101B1000354804602C6001203249087041A006F06D
:101B2000BFFD0020F3E700BFB4F5805F01D1444C56
:101B300001E0A4F58064214642A006F0B1FD042234
:101B400001A9204600F032FD9DF8070000909DF8A5
:101B500006309DF805209DF8041042A006F0A0FD77
:101B60009DF80400FE2804D11F4804602C6000206A
:101B7000CDE79DF80400FD2806D09DF80400FC2860
:101B800002D04FF0FF30C2E70F480068B042CBD11F
:101B9000042201A9204600F009FD9DF80400FE285A
:101BA00007D1114804602C601648006A08B1002073
:101BB000ADE74FF0FF30AAE70D0A2066696E64209A
:101BC0004C61737421000000EC0200200D0A205AC1
:101BD0004A3030323A20307825782C2030782578F9
:101BE00000000000FC020020F80200200D0A206620
:101BF000696E64204C617374212053543A30782507
:101C000078000000241100200D0A2066696E64200F
:101C10004C6173742120777269746546696C652024
:101C2000320000000D0A2066696E64204C617374F6
:101C30002120777269746546696C65203100000067
:101C400000FCFF000D0A2066696E64204C6173740D
:101C5000212052656164466C6173683A20307825B2
:101C6000780000000D0A204255463A20253032788F
:101C70002C202530327820253032782025303278DB
:101C8000000000002DE9F043A7B007468946C5488B
:101C900090F82D0420B14FF0FF3027B0BDE8F0835D
:101CA000C04CC1A006F0FCFCC4480078022846D114
:101CB000C348006A2062C24890F82C0484F82C04BF
:101CC000BF48B0F82A04A4F828046620A4F82A041F
:101CD000BB488068A060BA48C168E16001692161C1
:101CE000416961618169A161C169E161B4F8282438
:101CF00000F1280104F12800FEF746FAFE2084F8DE
:101D0000280094F82C1429200155B4F82804011255
:101D10002A20015594F828142B200155D4E90423D6
:101D2000D4E90610CDE90023CDE90210A548D4E995
:101D30000223016804F1440005F0F8F92BE00422C5
:101D400013A9384600F032FC9DF84C00FE2802D161
:101D50009DF84D0010B14FF0FF309EE79DF84E50BA
:101D60004FF6FF7000EA05259DF84F000543662DEC
:101D700002DBB5F5806F02D94FF0FF308DE7002010
:101D800084F82C04A4F82854B4F8282404F1280179
:101D9000384600F00BFC2C20005D4C2826D10DA805
:101DA0000EA90FAA0BABCDE9002102900CAA864820
:101DB000016804F12C00FEF72BFA052802D04FF041
:101DC000FF306AE79DF830002070BDF82C0000124B
:101DD000A070BDF82C00E0709DF83C0020719DF8CB
:101DE000380060719DF83400A07133E02C20005D54
:101DF00052282CD10DA80EA90FAA10ABCDE90132A3
:101E0000CDE9031011A812AB0CAA00906F4801682D
:101E100004F12C00FEF7FCF9072802D04FF0FF3048
:101E20003BE79DF8300020709DF8480060709DF8F9
:101E30004400A0709DF84000E0709DF83C002071C7
:101E40009DF8380060719DF83400A07102E04FF0F9
:101E5000FF3022E705A806A907AA08ABCDE90032A2
:101E6000CDE9021009AB0AAA5648016804F1440002
:101E7000FEF7CEF9062802D04FF0FF300DE70A98A2
:101E8000A0600999E160089921610799616106994B
:101E9000A1610599E1614948007810B3474800788D
:101EA00001286BD146488068A0604548C168E16060
:101EB00001692161416961618169A161C169E16172
:101EC000D4E90423D4E90610CDE90023CDE90210BA
:101ED0003C48D4E90223016804F1440005F026F9E6
:101EE0004CE094F82C843E4600BF08F1010000F05D
:101EF000FF0806F58066B6F1807F03D3A6F18070F7
:101F000000F580564E2213A9304600F04FFB9DF895
:101F10004C00FE2800D130E09DF84C00FD2803D095
:101F20009DF84C00FC2803D19DF84D00404500D0A1
:101F300023E005A806A907AA08ABCDE90032CDE940
:101F4000021009AB0AAA1F48016814A8FEF760F93D
:101F5000062800D011E00A98A0600999E16008996C
:101F60002161079961610699A1610599E16114A94F
:101F700004F14400FEF733F9B7E700BF6620A4F888
:101F80002A0427620120606284F82C0410A0216AD0
:101F900006F086FB012084F82D04C9F800400020DB
:101FA0007BE60000541500200D0A20726561642054
:101FB000696E697469616C697A652100FC020020B0
:101FC00024110020E8020020E0020020E4020020AA
:101FD0000D0A207265616420696E69743A30782553
:101FE00078000000F0B58BB00446002764488442B6
:101FF00002D0781E0BB0F0BD62480078022801D1F3
:10200000C01EF7E7D4E9081001EB8026B6F1807F07
:1020100003D3A6F1807000F5805604220AA9304649
:1020200000F0C4FA9DF82800FE2800D101279DF891
:102030002800FD2803D09DF82800FC2805D19DF834
:10204000290094F82C14884200D001279DF82A50CA
:102050004FF6FF7000EA05259DF82B0005434E2D35
:1020600002DBB5F5806F00D90127002F51D045481C
:10207000007801284AD194F82C04434991F82C1493
:10208000884243D14049606A496A88423ED13E480D
:10209000B0F82A04A4F828043B488068A0603A48B5
:1020A000C168E16001692161416961618169A16182
:1020B000C169E161B4F8282400F1280104F1280085
:1020C000FEF762F8FD2084F8280094F82C142920EB
:1020D0000155B4F8280401122A20015594F8281457
:1020E0002B200155D4E90423D4E90610CDE90023BF
:1020F000CDE902102548D4E90223016804F12C003F
:1021000005F014F802201F4908700BE04FF0FF3073
:1021100070E7A4F82854B4F8282404F128013046C4
:1021200000F044FA04A805A906AA07ABCDE90032DD
:10213000CDE9021008AB09AA1448016804F12C008B
:10214000FEF766F8062802D04FF0FF3052E70998F4
:10215000A0600899E160079921610699616105997C
:10216000A1610499E1614E20A4F82A04606A401C30
:10217000606294F82C04401C84F82C04002039E799
:1021800054150020FC02002024110020E802002049
:1021900010B504461848006828B117480068083090
:1021A000B0F5805F1AD915A006F07AFA002012491E
:1021B00008600846006800F0F3F915A0D4E90012A1
:1021C00006F06EFA082221460B48006800F0FAF982
:1021D000094800680830084908600AE00CA0D4E902
:1021E000001206F05DFA082221460348006800F05C
:1021F000E9F9002010BD0000F40200200D0A205A69
:102200004A3030313A204572656173652100000023
:102210000D0A205A4A3030313A20307825782C2067
:10222000307825780000000038B50546234804685A
:1022300004226946204600F0B9F99DF80000FE2806
:1022400009D09DF80000FD2805D09DF80000FC286D
:1022500001D0002038BD00BF04F58064B4F1807F58
:1022600003D3A4F1807000F580540422694620460F
:1022700000F09CF99DF80000FE2805D19DF80100B2
:1022800010B90E48046011E09DF80000FE280DD042
:102290009DF80000FD2809D09DF80000FC2805D01D
:1022A000280B0003054908600020D3E703480068B5
:1022B0000013B0EB253FCFD00020CBE7EC0200208D
:1022C00070B586B004460E461CB94FF0FF3006B01C
:1022D00070BD606A80B9D4E90423D4E90610CDE961
:1022E0000023CDE902105048D4E90223016804F12B
:1022F000440004F01BFF0FE0D4E90423D4E90610E6
:10230000CDE90023CDE902104748D4E90223016852
:1023100004F12C0004F00AFF44480068049043488C
:1023200040680590D4E9081001EB8025B5F1807F65
:1023300003D3A5F1807000F58055C5F30B0068B993
:10234000C5F30B0039490988C1F30B01884202D15A
:102350002846FFF769FF284600F022F97EB105F50F
:1023600080603249486008464068B0F1807F06D3FB
:1023700008464068A0F1807000F5805048604EB972
:102380002A4800680499884204D128484068059981
:10239000884208D025484268016825A006F080F9E7
:1023A0002248FFF7F5FE606A18B9FE2084F828007D
:1023B00007E01EB1FC2084F8280002E0FD2084F82C
:1023C000280094F82C1429200155B4F82A04A4F804
:1023D0002804B4F8280401122A20015594F828147E
:1023E0002B200155B4F828342A46314617A006F0B0
:1023F00057F9B4F8282404F12801284600F0E2F83F
:10240000606A401C606294F82C04401C84F82C0420
:102410000020A4F828044E20A4F82A0416B120466F
:10242000FFF7DEFA002052E7E8020020EC0200206D
:102430000D0A205361766546696C65416464723AA1
:102440005354203078257820535000000D0A205432
:102450004F20466C61682C20666C61673A25642CBD
:1024600020307825782C206C656E6774683A256476
:102470000000000070B504460E4614B94FF0FF305E
:1024800070BD3046FDF7A4FE0546B4F82A04C0F539
:102490008060401EA84201D20120F1E7B4F82A244E
:1024A00004F1280150183146FDF799FEB4F82A04CA
:1024B0002844A4F82A040020E2E7000001460D4861
:1024C00090F82D0410B14FF0FF3070470A48406873
:1024D000084A10620020506282F82C044E201070CE
:1024E0006620A2F82A04012082F82D041046086014
:1024F0000020EAE724110020EC02002030B585B06E
:1025000004460D461CB94FF0FF3005B030BD2878A9
:102510004C2805D02878522802D04FF0FF30F4E73D
:102520002878207068786070A878A070E878E070EB
:102530002879207168796071A879A07120784C2879
:102540000ED1A17960792279CDE900200291E3785A
:1025500022780F48016804F12C0004F0E7FD14E034
:102560002078522811D1A07961792279E378CDE9D8
:102570000132CDE90310A0780090637822780548F5
:10258000016804F12C0004F0D1FD0020BDE700003B
:10259000E0020020E402002010B503F09FFE10BD11
:1025A00010B50446204603F067FE10BDF8B504469A
:1025B0000D4616466B4632462946204603F06AFE13
:1025C0000098F8BDF8B504460D4616466B463246EF
:1025D0002946204603F070FE0098F8BD38B5AA4899
:1025E0000078E0B9FEF7FCFE044604F0010030B1CB
:1025F000A648FEF7B3FE10B10120A349087004F00D
:10260000800020B1FEF78AFE0A2000F015FF002CA2
:1026100004D08120FEF79AFEFEF7E8FE31E19A48E9
:1026200000780128FAD199480078012806D00228BC
:1026300005D0032804D080287ED10FE100BF00BF61
:1026400093480078002878D006F01CF8002875D14F
:102650008F48007801281DD18E480068FFF7C2FC22
:1026600038B18C480068FFF7BBF902208849087030
:1026700010E088480068B0F828044E280ADD854834
:102680000068B0F82804A0F14E0182480068763056
:1026900006F06CF87E4800780228D8D16846FFF72B
:1026A000A7F940B17CA005F0D5FF0020784908705B
:1026B0007549087038BD77490098FFF7E3FA40B1D3
:1026C0007AA005F0C7FF0020714908706E490870B4
:1026D000F0E77B4800784C2811D16E4800680078FC
:1026E000774908706B48006840784870694800680E
:1026F0008078887067480068C078C87041E0654895
:10270000006800784C283CD06D48407861490968E1
:10271000497888420DD16A4880785E49096889788D
:10272000884206D16648C0785A490968C978884203
:1027300027D05648007802E09EE044E08DE0012872
:1027400012DD52480078401E504908705148006818
:1027500040785B4948704F480068807888704D48E1
:102760000068C078C8700CE04A480068FFF738F984
:1027700049A005F06FFF00204549087042490870E4
:1027800098E750A005F066FF424800682C3005F03D
:1027900061FF40480068443005F05CFF3D48006838
:1027A000B0F8280466280ADD3A480068B0F8280422
:1027B000A0F16601374800688E3005F0D7FF012090
:1027C0003349087049E06846FFF774F930B143A017
:1027D00005F040FF00202C4908706BE72D49009858
:1027E000FFF750FA30B131A005F034FF0020264940
:1027F00008705FE733A005F02DFF264800682C30F5
:1028000005F028FF23480068443005F023FF2148E5
:102810000068B0F8280466280ADD1E480068B0F891
:102820002804A0F166011B4800688E3005F09EFF69
:1028300018480068007822490870164800684078F7
:102840004870144800688078887012480068C07822
:10285000C87001200E4908702CE711E0FFF794F8CA
:1028600018B122A005F0F6FE02E027A005F0F2FE66
:1028700000200549087003E000200349087000BFEC
:1028800000BF00BF16E700006700002063000020C3
:1028900062000020500000200D0A4E6F206D6F7204
:1028A00065207265636F7264210000000D0A526535
:1028B0006164207265636F7264206661696C2100D7
:1028C0005B0000200D0A0D0A2D2D2D5265636F72DD
:1028D000642D2D2D0D0A54696D6520000D0A4E6F73
:1028E000207265636F726421000000000D0A42755A
:1028F00073792C2064656C657465207265636F72F2
:1029000064206661696C21000D0A44656C6574651C
:10291000207265636F7264207375636365737321DE
:102920000000000010B58EB07F48007800287CD1F0
:102930007E4800687E49096808447E490968084461
:102940007D49096808447D49096808447C4909684B
:102950000844002875D07B48FFF7B0FD002865D1FA
:102960000120714908700CA805F00AF90CA97548F6
:102970000068FFF7C3FD7348006880686B49096809
:10298000884204D0694800686E49096888606D48CB
:102990000068C06866490968884204D064480168D4
:1029A00068480068C1606748006840696249096812
:1029B000884204D06048016862480068416161480B
:1029C000006880695D490968884204D05B480168F5
:1029D0005C48006881615B480068C06958490968C3
:1029E000884204D05648016856480068C16155487D
:1029F000006800694F490968884217D201A805F0AC
:102A000039F801A8FDF7E4FB04460D222046641CBA
:102A100001A90A540A222046641C0A5400222046B6
:102A2000641C0A544748006801E00AE07AE0FFF7B6
:102A300021FD444800680069401C4249096808615A
:102A400070E03948007800286CD03E480068806803
:102A500036490968884204D0344800683949096811
:102A6000886038480068C06831490968884204D0E5
:102A70002F48016833480068C160324800684069E7
:102A80002D490968884204D02B4801682D48006808
:102A900041612C480068806928490968884204D04F
:102AA0002648016827480068816126480068C06997
:102AB00023490968884204D02148016821480068F8
:102AC000C1612048006800691A490968884229D212
:102AD00001A804F0CFFF01A8FDF77AFB04460D2200
:102AE0002046641C01A90A540A222046641C0A5488
:102AF00000222046641C0A5412480068FFF7BAFC02
:102B000048B100210F480068FFF7DAFB01A90D4822
:102B10000068FFF7AFFC0B4800680069401C0949DA
:102B2000096808610EB010BD5A0000202400002082
:102B3000280000202C00002030000020340000205D
:102B4000380000205400002070B5A0B080216846F5
:102B5000FDF733FB3EE2002606226946FDA0FDF7A5
:102B600047FB00287ED1FD48FDA10A680260097973
:102B7000017107240DEB04002C230A22F749491D9B
:102B800005F00CF80546681C04440DEB04002C23EA
:102B90000A22F2490F3105F001F80546681C044489
:102BA0000022EE480F30691C4254024651190DEBC9
:102BB00004002C23012204F0F1FF0546681C0444A4
:102BC0000DEB04002C230B22E4491B3104F0E6FF3B
:102BD0000546681C04440022E0481B30691C42542E
:102BE000024651190DEB04002C23012204F0D6FFFC
:102BF0000546681C04440DEB04002C230122D74930
:102C0000283104F0CBFF0546681C04440DEB04009A
:102C10002C230222D149293104F0C0FF0546681C4B
:102C2000044405B101260DEB04002C230A22CB49F4
:102C30002B3104F0B3FF0546681C04440DEB04007F
:102C40002C230A22C549353104F0A8FF05460A2D78
:102C500003D10021C14880F83E10681C04440DEBEC
:102C6000040000E061E02C230122BC493F3104F064
:102C700095FF0546681C04440DEB04002C230A2232
:102C8000B649403104F08AFF0546681C04440DEB48
:102C900004002C230122B1494A3104F07FFF05468C
:102CA000681C04440DEB04002C230A22AB494B3171
:102CB00004F074FF0546681C04440DEB04002A234D
:102CC0000A22A649553104F069FF0546681C0444F0
:102CD0000DEB04000D230222A0495F3104F05EFFDA
:102CE0000546012E20D19D4890F8290030389E4994
:102CF00008700846007800EB80004006000E08705F
:102D0000964890F82A0030380978084496490870A7
:102D1000964800780978884206D09348007893490D
:102D2000087001209249087054E10622694691A07A
:102D3000FDF75EFA0028F7D1904891A10A68026079
:102D40000979017107240DEB04002C230A228B4919
:102D5000491D04F023FF0546681C04440DB146F0EC
:102D600001060DEB04002C23012284490F3104F0ED
:102D700015FF0546681C04440DEB04002C230A22B1
:102D80007E49103104F00AFF0546681C0444002205
:102D900072480F30691C4254784A103251190DEBB9
:102DA00004002C23012204F0F9FE0546681C0444AB
:102DB0000DEB04002C230B2270491C3104F0EEFEB5
:102DC0000546681C0444002264481B30691C4254B8
:102DD0006A4A1C3251190DEB04002C23012204F025
:102DE000DDFE0546681C04440DEB04002C230A227A
:102DF0006249293104F0D2FE0546681C04440DEBFB
:102E000004002C230A225D49333104F0C7FE054635
:102E1000681C04440DEB04002C23062257493D3165
:102E200004F0BCFE0546681C04440DB146F00206E1
:102E30000DEB04002C230A225049433104F0AEFE6E
:102E40000546681C04440DEB04002C2301224B4969
:102E50004D3104F0A3FE0546681C04440DEB04004C
:102E60002A23012245494E3104F098FE0546681C8C
:102E700004440DEB04002C230A2240494F3104F096
:102E80008DFE054606F00100002839D03B48407908
:102E900030383D4908710846007900EB8000400653
:102EA000000E0871084601793448807930380844AA
:102EB000354908713148C079303848710846407941
:102EC00000EB80004006000E4871084641792B480F
:102ED000007A303808442C4948712848407A303804
:102EE00088710846807900EB80004006000E8871EA
:102EF000084681792148807A30380844224988710F
:102F000006F0020028B31D4890F8410030381E49F1
:102F100048700846407800EB80004006000E48707C
:102F200008464178154890F8420030380844164960
:102F30004870124890F83F00303888700846807812
:102F400000EB80004006000E8870084681780B4830
:102F50001CE036E024474E47474100007010002037
:102F6000474E474741000000DB020020DD02002001
:102F7000DC02002024474E524D430000D1100020B7
:102F8000474E524D43000000D402002090F840000C
:102F90003038084413498870134890F83D003038A1
:102FA000C8700846C07800EB80004006000EC8706C
:102FB0000846C1780C4890F83E003038084409496A
:102FC000C87006F0010028B106F0020010B10548F3
:102FD00004F032FE684604F0BBFD00287FF4BBAD70
:102FE00020B070BDD4020020D11000202DE9F8439C
:102FF00004460D4616461F46DDF820800948CDF8E8
:103000000080006840683B4632462946D0F824C01C
:103010002046E04703490968496888688047BDE859
:10302000F883000098020020F8B504460D461646C5
:1030300001200090A019421E0648006840682B46F7
:10304000214687696846B84702490968496888681F
:103050008047F8BD98020020F8B505460C46164694
:1030600001200090A019431E0648006840682246CF
:103070002946C7696846B8470249096849688868A7
:103080008047F8BD9802002010B505F06DFA01499F
:10309000086010BD9802002010B50349096849680E
:1030A0004868804710BD0000980200202DE9F84FC5
:1030B000044689469246202C01DABDE8F88FA4F137
:1030C000200000F0FF0815481549097810F8315024
:1030D0001349097800EBC1004678F01DC11700EBD9
:1030E0005171C91069430D4A0D4B1B7802EBC302A5
:1030F000526801FB08270B480096006840682B4681
:1031000052464946D0F824C03846E0470549096888
:1031100049688868804700BFCFE700002802002088
:103120009C020020980200202DE9F84305460F4636
:10313000904600241AE0124830F81400A84214D136
:10314000104E06EB4416102000900F4800684068AF
:10315000102342463946D0F824C03046E0470A4999
:10316000096849688868804707E0641C044830F8AB
:1031700014004FF6FF718842DDD100BFBDE8F8832F
:1031800036CD000842CD0008980200202DE9F0411C
:1031900004460E46174622E014F8015B802D12DD2E
:1031A000207800B91EE04FF6FF7000EA052514F8FC
:1031B000010B05433A4631462846FFF7B5FF06F1B5
:1031C000100086B20BE0E8B23A463146FFF76EFFD8
:1031D00006480749097810F83100304486B2207853
:1031E0000028D9D100BFBDE8F081000028020020EE
:1031F0009C0200202DE9F84304460E4617469846E7
:103200000020009000250AE07319E21908480068C0
:1032100040682146D0F818C06846E0476D1C454517
:10322000F2DB03490968496888688047BDE8F8838C
:103230009802002001490870704700009C0200209D
:1032400010B504460CB9012010BD607920B90020EA
:103250002071204600F004F8012060710020F3E79F
:1032600008B5094A016891420DD100BF0749496973
:1032700041F04001054A51611146496901F04001A0
:10328000009100BF00BF08BD0030024000100240A6
:1032900070B50446002594F82100022803D00420CC
:1032A000A0630125C1E02068006820F00E002168BD
:1032B00008602068006820F00100216808605C490F
:1032C0002068884252D95A4978392068884201D109
:1032D000012047E0564964392068884201D1102016
:1032E00040E0534950392068884201D1801539E0C7
:1032F0004F493C392068884201D1801432E04C4962
:1033000028392068884202D14FF480302AE04849A9
:1033100014392068884202D14FF4801022E04449D9
:103320002068884201D140041CE04249206888425C
:1033300001D1012016E03F4914312068884201D1B3
:1033400010200FE03B4928312068884201D18015C8
:1033500008E038493C312068884201D1801401E0FE
:103360004FF480303349091F086051E03049783903
:103370002068884201D1012047E02D496439206846
:10338000884201D1102040E0294950392068884204
:1033900001D1801539E026493C392068884201D1A5
:1033A000801432E0224928392068884202D14FF443
:1033B00080302AE01E4914392068884202D14FF437
:1033C000801022E01A492068884201D140041CE0A4
:1033D00018492068884201D1012016E015491431AE
:1033E0002068884201D110200FE01249283120685E
:1033F000884201D1801508E00E493C31206888429E
:1034000001D1801401E04FF48030094980394860CF
:10341000012084F8210000BF002084F8200000BFB4
:10342000606B10B12046616B8847284670BD000074
:10343000800002400804024070B5044600F07CFAA7
:1034400006462546681C10B104480078054400BFB4
:1034500000F072FA801BA842FAD370BD0C00002065
:1034600010B50446402C3DD004DC042C09D0102CAF
:103470001BD11BE0B4F5807F50D0B4F5007FF7D1AD
:1034800069E0022004F0C4FF0421424800F046FA3B
:10349000012803D100204049087006E001203E4980
:1034A000087000F049FA3D49086071E0022004F01C
:1034B000AFFF10213A4800F031FA012800D067E050
:1034C00038480068401C374908603748007840F0A9
:1034D0001000354908703548007840F00200334943
:1034E000087055E0022004F093FF40212C4800F0C2
:1034F00015FA012800D04BE02D480068401C2C49EB
:1035000008602948007840F00800274908702748DB
:10351000007840F002002549087039E0022004F0EC
:1035200077FF4FF48071234800F0F8F9012800D0AC
:103530002EE021480068401C1F4908601A480078A6
:1035400040F02000184908701848007840F0020048
:10355000164908701CE0022004F05AFF4FF4007175
:103560000F4800F0DBF9012800D011E01348006893
:10357000401C124908600C48007840F004000A49D9
:1035800008700A48007840F002000849087000BF3F
:1035900000BF10BD00140140180000201C000020D6
:1035A000000C0140340000203D0000203C000020C1
:1035B0003000002000080140380000202C000020CE
:1035C00010B5044604480068204020B10248046059
:1035D0002046FFF745FF10BD140401402DE9F847D0
:1035E00002460024002000258446002700237BE1BA
:1035F0004FF0010808FA03F4D1F8008008EA04004B
:10360000A0427DD1DFF8ECA2D1F80480A8EB0A0932
:10361000D0453AD014DCB8F1030F50D009DCB8F132
:10362000000F31D0B8F1010F1CD0B8F1020F49D111
:1036300020E0B8F1110F18D0B8F1120F42D11EE0FE
:10364000B9F5881F25D006DCB9F5803F20D0B9F543
:10365000801F37D11AE0B9F5001F18D0B9F5041F43
:1036600030D117E0D1F80CC02DE0D1F80C8008F172
:10367000040C28E0D1F80C8008F1080C23E0D1F804
:103680000C8008F10C0C1EE000BF00BF00BF00BFA3
:1036900000BF00BFD1F80880B8F1000F02D14FF091
:1036A000040C0BE0D1F80880B8F1010F03D14FF002
:1036B000080C146102E04FF0080C546103E04FF075
:1036C000000C00E000BF00BFFF2801D8904601E0D9
:1036D00002F104084646FF2802D84FEA830803E0B7
:1036E000A3F108084FEA88084746D6F800804FF053
:1036F0000F0909FA07F928EA09080CFA07F900E0A6
:103700007AE048EA0908C6F80080D1F8048008F099
:103710008058B8F1805F6FD100BFDFF8DC81D8F846
:10372000188048F00108DFF8D091C9F81880C84621
:10373000D8F8188008F00108CDF8008000BF00BF5D
:103740004FEAB9384FEA930958F829504FEA83787D
:103750004FEA18794FF00F0808FA09F825EA08052A
:10376000DFF89881424502D14FF0000824E0DFF8ED
:103770009081424502D14FF001081DE0DFF88481BD
:10378000424502D14FF0020816E0DFF87C81424545
:1037900002D14FF003080FE0DFF87081424502D1FB
:1037A0004FF0040808E0DFF86881424502D14FF08D
:1037B000050801E04FF006084FEA83794FEA1979CE
:1037C00008FA09F848EA0505DFF848814FEA930945
:1037D00048F82950D1F8048008F48038B8F5803FC3
:1037E0000BD1DFF83481D8F8008048EA0008DFF810
:1037F0002891C9F800800AE075E0DFF81C81D8F84C
:10380000008028EA0008DFF81091C9F80080D1F89C
:10381000048008F40038B8F5003F0ED1DFF8F880D6
:1038200008F10408D8F8008048EA0008DFF8E890BA
:1038300009F10409C9F800800DE0DFF8DC8008F127
:103840000408D8F8008028EA0008DFF8CC9009F1D5
:103850000409C9F80080D1F8048008F48018B8F58C
:10386000801F0ED1DFF8B08008F10808D8F800807A
:1038700048EA0008DFF8A09009F10809C9F80080BB
:103880000DE0DFF8948008F10808D8F8008028EAF5
:103890000008DFF8849009F10809C9F80080D1F820
:1038A000048008F40018B8F5001F0ED1DFF8688016
:1038B00008F10C08D8F8008048EA0008DFF85890B2
:1038C00009F10C09C9F800800DE0DFF84C8008F11F
:1038D0000C08D8F8008028EA0008DFF83C9009F1CD
:1038E0000C09C9F800805B1C102BFFF481AEBDE809
:1038F000F88700000000111000100240000801408D
:10390000000C01400010014000140140001801406B
:10391000001C014008000140000401400246936879
:103920000B400BB1012000E0002070470AB101619B
:1039300001E00B0403617047014800687047000014
:10394000040000200348006803490978084401493D
:1039500008607047040000200C00002010B50848E3
:10396000006840F0100006490860032000F0C2F82B
:10397000002000F007F800F02BF8002010BD000038
:103980000020024070B504460E4800784FF47A716A
:10399000B1FBF0F00C490968B1FBF0F5284601F0E5
:1039A000ABF808B1012070BD102C07D200222146CF
:1039B000501E00F060F80548046001E00120F2E7C5
:1039C0000020F0E70C00002000000020080000208C
:1039D00008B500BF1F48806940F001001D4988619B
:1039E0000846806900F00100009000BF00BF05207C
:1039F00000F080F8002211466FF00B0000F03BF859
:103A0000002211466FF00A0000F035F8002211463E
:103A10006FF0090000F02FF800221146501F00F04F
:103A20002AF800221146101F00F025F80022114646
:103A3000901E00F020F800221146501E00F01BF8E6
:103A400000BF0549486820F0E06040F00070486021
:103A500000BF08BD001002400000014000BF00F0A0
:103A60001F02012191404209920002F1E022C2F8B6
:103A7000001100BF70472DE9F05F80460D461646E5
:103A8000002701F0A3FF074639462A46334601F0D6
:103A90000700C0F1070ABAF1040F02D94FF0040A77
:103AA00001E0C0F1070AD14600F1040ABAF1070F9C
:103AB00002D24FF0000A01E0A0F1030AD4464FF011
:103AC000010A0AFA09FAAAF1010A0AEA020A0AFA3A
:103AD0000CFA4FF0010B0BFA0CFBABF1010B0BEAEC
:103AE000030B4AEA0B042146404601F077FFBDE88C
:103AF000F09F000000BF00F00702064B19684FF668
:103B0000FF031940044B0B4343EA0221014B1960A8
:103B100000BF70470CED00E00000FA0570477047E9
:103B20002DE9F04105460E4617469846002406F05A
:103B30007F0105F50A7000EB41146761C4F8188035
:103B40000020E061607006F07F00207006F07F00CA
:103B500020B92146286803F090F803E02146286840
:103B600003F08BF80020BDE8F0812DE9F041054617
:103B70000E4617469846002406F07F0105F12800FE
:103B800000EB41146761C4F818800020E061012057
:103B9000607006F07F00207006F07F0020B921469B
:103BA000286803F06AF803E02146286803F065F806
:103BB0000020BDE8F08110B50446206803F012FA39
:103BC00000F40040B0F5004F02D1204601F01AFF8A
:103BD000206803F007FA00F48060B0F5806F0ED122
:103BE0002068B0F8440020F480602168A1F8440007
:103BF000204600F04BF90021204600F04AF92068E9
:103C000003F0F0F900F48040B0F5804F07D1206850
:103C1000B0F8440020F480402168A1F844002068F6
:103C200003F0E0F900F40050B0F5005F07D1206820
:103C3000B0F8440020F400502168A1F84400206846
:103C400003F0D0F900F48050B0F5805F1AD12068FD
:103C5000B0F8400020F004002168A1F8400020687E
:103C6000B0F8400020F008002168A1F8400020468C
:103C700000F00DF92068B0F8440020F4805021686D
:103C8000A1F84400206803F0ADF900F40060B0F53D
:103C9000006F20D12068B0F8400040F00800216893
:103CA000A1F840002068B0F8440020F400602168CA
:103CB000A1F844002068B0F8400040F004002168FA
:103CC000A1F84000206803F08DF9C0F3003010B96E
:103CD000204600F0FAF8206803F084F900F4007040
:103CE000B0F5007F0AD12068B0F8440020F40070DD
:103CF0002168A1F84400204600F0CAF8206803F0CB
:103D000071F900F48070B0F5807F07D12068B0F8B9
:103D1000440020F480702168A1F8440010BD30B543
:103D200085B00446002514B9012005B030BD94F8D3
:103D3000290428B9002084F82804204600F07CF8E3
:103D4000032084F82904206802F08CFF142204F177
:103D500010016846FCF718FA94E80F0002F06CFFB7
:103D60000021206803F057F9002525E0012104F126
:103D7000280000EB4510417004F1280000EB4510CD
:103D8000057004F1280000EB45108581002104F145
:103D9000280000EB4510C17004F1280000EB45102D
:103DA000016104F1280000EB4510416104F1280095
:103DB00000EB451081616D1C0F2DD7D3002524E049
:103DC000002104F50A7000EB4510417004F50A70FB
:103DD00000EB4510057004F1280000EB45108581CB
:103DE00004F50A7000EB4510C17004F50A7000EB91
:103DF0004510016104F50A7000EB4510416104F5BE
:103E00000A7000EB451081616D1C0F2DD8D3142270
:103E100004F110016846FCF7B7F994E80F0002F0CE
:103E200012FF002084F82400012084F8290420686F
:103E300002F006FF002078E738B5044611492068F3
:103E400088421DD100BF1048C06940F400000E49EF
:103E5000C8610846C06900F40000009000BF00BFC0
:103E6000002211461320FFF706FE1320FFF7F6FD90
:103E7000002211461420FFF7FEFD1420FFF7EEFD8F
:103E800038BD0000005C00400010024070477047E1
:103E9000704770B504460D4600BF94F82804012809
:103EA00001D1022070BD012084F8280400BF84F8ED
:103EB00024502946206803F0B1F800BF002084F8A0
:103EC000280400BF00BFEDE770477047F8B504460F
:103ED00000260025207800F0010000286BD0002784
:103EE0004348C06900F0805070B900BF4048C069C5
:103EF00040F080503E49C8610846C06900F08050DB
:103F0000009000BF00BF01273A48006800F48070AD
:103F1000B0B93848006840F4807036490860FFF74F
:103F20000BFD064606E0FFF707FD801B642801D95C
:103F30000320F8BD2F48006800F480700028F2D0FC
:103F40002B48006A00F440752DB3A08800F440703F
:103F5000A84220D02648006A20F440750120264956
:103F60000860002008602248056205F0010090B159
:103F7000FFF7E2FC064608E0FFF7DEFC801B41F29B
:103F80008831884201D90320D3E71948006A00F03C
:103F900002000028F0D01648006A20F440706168E2
:103FA000084313490862012F04D10846C06920F074
:103FB0008050C86100BF207800F00200022807D1BD
:103FC0000B48406820F44040A16808430849486015
:103FD000207800F01000102807D10548406820F430
:103FE000800061690843024948600020A1E70000A1
:103FF00000100240007000404004424270B5044688
:104000000D4600266248006800F00700A8420ED264
:104010005F48006820F0070028435D4908600846B3
:10402000006800F00700A84201D0012070BD207890
:1040300000F00200022807D15648406820F0F00046
:10404000A168084353494860207800F00100002827
:104050005DD06068012806D14E48006800F4003049
:1040600090B90120E2E76068022806D1494800685B
:1040700000F0007040B90120D8E74648006800F021
:10408000020008B90120D1E74248406820F003004F
:10409000616808433F494860FFF74EFC0646606888
:1040A000012810D108E0FFF747FC801B41F288315E
:1040B000884201D90320B9E73648406800F00C0077
:1040C0000428F0D123E06068022810D108E0FFF74F
:1040D00033FC801B41F28831884201D90320A5E7D7
:1040E0002C48406800F00C000828F0D10FE008E0F0
:1040F000FFF722FC801B41F28831884201D903205E
:1041000094E72448406800F00C000028F0D12048D3
:10411000006800F00700A8420ED91D48006820F092
:10412000070028431A4908600846006800F00700A5
:10413000A84201D0012079E7207800F0040004288B
:1041400007D11448406820F4E060E1680843114951
:104150004860207800F00800082808D10D48406821
:1041600020F46050216940EAC1000A49486000F02B
:104170003DF808494968C1F30311074A515CC8403A
:10418000064908600020FFF7FDFB00204EE7000015
:1041900000200240001002401C890008000000209E
:1041A00001480068704700000000002000B5FFF7DC
:1041B000F7FF04494968C1F30221034A515CC84032
:1041C00000BD0000001002402C89000800B5FFF778
:1041D000E7FF04494968C1F3C221034A515CC84062
:1041E00000BD0000001002402C890008F0B585B029
:1041F0000FF26C0C9CE8E01001A8A0E8E0101CA5F0
:104200002D68009500210022002300240020194D74
:10421000696801F00C05F5B1042D02D0082D19D103
:1042200001E0154819E001ADC1F38346AC5D01F42E
:10423000803555B10F4D6D68C5F340451DF805201B
:104240000D4D6543B5FBF2F302E00C4D04FB05F3A5
:10425000184602E000BF084800BF00BF05B0F0BD2F
:1042600002030405060708090A0B0C0D0E0F1010B7
:10427000010200000010024000127A0000093D0017
:10428000F8B504460025207800F00100002878D019
:10429000F848406800F00C0004280CD0F54840684D
:1042A00000F00C00082811D1F248406800F480307A
:1042B000B0F5803F0AD1EF48006800F400300028D4
:1042C0005FD0606800285CD10120F8BD00BF606845
:1042D000B0F5803F06D1E748006840F48030E549FA
:1042E000086028E0606858B9E248006820F480302F
:1042F000E04908600846006820F4802008601AE061
:104300006068B0F5A02F0BD1DA48006840F4802037
:10431000D84908600846006840F4803008600AE028
:10432000D448006820F48030D2490860084600680C
:1043300020F48020086000BF606888B1FFF7FCFAB5
:10434000054606E0FFF7F8FA401B642801D9032070
:10435000BBE7C848006800F400300028F2D010E045
:10436000FFF7EAFA054606E0FFF7E6FA401B642885
:1043700001D90320A9E7BF48006800F400300028F5
:10438000F2D1207800F00200022857D1B9484068E5
:1043900000F00C0050B1B748406800F00C0008284D
:1043A00018D1B448406800F4803098B9B14800682A
:1043B00000F0020020B12069012801D0012084E72B
:1043C000AC48006820F0F800616940EAC100A949E2
:1043D000086033E02069E8B10120A7490860FFF7D1
:1043E000ABFA054606E0FFF7A7FA401B022801D901
:1043F00003206AE79F48006800F002000028F2D01E
:104400009C48006820F0F800616940EAC1009949C1
:10441000086013E0002098490860FFF78DFA054610
:1044200006E0FFF789FA401B022801D903204CE778
:104430009048006800F002000028F2D1207800F0D7
:10444000080008282DD1A069B8B101208B49086067
:10445000FFF772FA054606E0FFF76EFA401B0228E6
:1044600001D9032031E78348406A00F002000028A8
:10447000F2D0012001F076FD13E000207F490860B2
:10448000FFF75AFA054606E0FFF756FA401B0228E6
:1044900001D9032019E77748406A00F0020000289C
:1044A000F2D1207800F00400042873D1002671486E
:1044B000C06900F0805070B900BF6E48C06940F01C
:1044C00080506C49C8610846C06900F08050009077
:1044D00000BF00BF01266A48006800F48070B0B9D0
:1044E0006748006840F4807065490860FFF724FA67
:1044F000054606E0FFF720FA401B642801D9032097
:10450000E3E65F48006800F480700028F2D000BF46
:10451000E068012806D15748006A40F0010055497B
:10452000086227E0E06858B95248006A20F00100AC
:10453000504908620846006A20F00400086219E049
:10454000E06805280BD14B48006A40F00400494957
:1045500008620846006A40F0010008620AE0454827
:10456000006A20F00100434908620846006A20F012
:104570000400086200BFE068A0B1FFF7DDF905465E
:1045800009E0FFF7D9F9401B41F28831884202D98E
:1045900003209AE622E03748006A00F00200002873
:1045A000EFD012E0FFF7C8F9054608E0FFF7C4F9BD
:1045B000401B41F28831884201D9032085E62D480D
:1045C000006A00F002000028F0D1012E05D1294830
:1045D000C06920F080502749C86100BFE069C8B3B6
:1045E0002448406800F00C00082860D0E0690228E8
:1045F00048D1002020490866FFF79EF9054606E0ED
:10460000FFF79AF9401B022801D903205DE61948FB
:10461000006800F000700028F2D1206AB0F5803FF9
:1046200007D11448406820F40030A16808431149BC
:104630004860D4E9080108430E49496821F474111F
:1046400008430C49486001200B490866FFF774F9DC
:10465000054607E02DE0FFF76FF9401B022801D95E
:10466000032032E60348006800F000700028F2D012
:104670001FE000000010024000004242800442425D
:104680000070004000200C490866FFF755F9054608
:1046900006E0FFF751F9401B022801D9032014E678
:1046A0000648006800F000700028F2D101E0012007
:1046B0000BE6002009E60000000042420010024024
:1046C00070470000F8B50446206846682068856891
:1046D00005F0400048B905F0010030B106F0400097
:1046E00018B12046216C8847F8BD05F0020030B1B2
:1046F00006F0800018B12046616C8847F4E705F0A9
:104700006000002866D006F02000002862D005F086
:104710004000F0B194F8510003280ED0606D40F0D5
:104720000400606500BF002000902068C068009011
:1047300020688068009000BF0BE000BF0020009060
:104740002068C068009020688068009000BF00BFAB
:10475000CAE705F0200088B1606D40F00100606597
:1047600000BF0020009020688068009020680068EA
:1047700020F040002168086000BF00BF606D20B3DA
:104780002068406820F0E00021684860012084F83B
:10479000510006F0020010B906F00100B0B1206827
:1047A000406820F0030021684860E06C28B10A48A6
:1047B000E16C4863E06CFEF76BFDA06C28B1064825
:1047C000A16C4863A06CFEF763FD02E02046FFF792
:1047D00077FF89E700BF87E76562000810B50446E8
:1047E0000CB9012010BD0021A16294F8510010B94C
:1047F000204600F037F8022084F851002068006855
:1048000020F0400021680860D4E901010843E16814
:1048100008432169084361690843218B01F4007151
:104820000843E1690843216A0843A16A08432168F3
:1048300008600421A06901EA1040616A0843216808
:1048400048602168E06A08612068C06920F400605F
:104850002168C86100206065012084F851000020B3
:10486000C0E7000010B586B00446184920688842A9
:104870002AD100BF1648C06940F480401449C8617D
:104880000846C06900F48040019000BF00BF4FF4AB
:1048900020400290022003900320059002A90D48B9
:1048A000FEF79CFE4FF4804002900020039004909D
:1048B00002A90848FEF792FE002211462420FFF7C5
:1048C000DAF82420FFF7CAF806B010BD003800401F
:1048D00000100240000C014070470000F0B5044693
:1048E00000250026002700BF94F85000012801D1C0
:1048F0000220F0BD012084F8500000BF94F8515010
:104900006668012D08D0B6F5827F03D1A06808B98A
:10491000042D01D0022735E009B102B10BB90127FE
:1049200030E094F85100012802D1052084F85100AC
:10493000002060652163A386E386A263A387E387E3
:10494000E06820B1134820641348606403E0134812
:104950002064134860642068406840F0E000D4F8A8
:1049600000C0CCF804002068006800F04000402837
:1049700007D02068006840F04000D4F800C0CCF8B0
:10498000000000BF00BF002084F8500000BF384680
:10499000AFE70000156000087B6000084960000870
:1049A000AF60000830B50346002400BF93F8500004
:1049B000012801D1022030BD012083F8500000BF42
:1049C00001B10AB901243EE093F85100012801D059
:1049D000022438E0032083F8510000205865196351
:1049E0009A86DA8698639887D8871864D86810B151
:1049F0001848586401E0184858649868B0F5004FAA
:104A000005D11868006840F480401D6828609868E7
:104A100030B91868406840F080001D68686005E0A3
:104A20001868406840F0A0001D6868601868006859
:104A300000F04000402805D01868006840F04000B1
:104A40001D68286000BF00BF002083F8500000BF31
:104A50002046B0E7C9630008ED63000810B50446BE
:104A60000548844207D1012004490870012201034E
:104A70000348FEF75BFF10BD18030020C0020020B2
:104A8000000C014010B504460548844207D10120BE
:104A900004490870012201030348FEF747FF10BDD7
:104AA00018030020C0020020000C0140042808D197
:104AB0004FF0E021096941F004014FF0E02211615B
:104AC00007E04FF0E021096921F004014FF0E022F6
:104AD0001161704710B507480088401C80B2054935
:104AE0000880B0F57A7F03DB0020088003F04CFDDE
:104AF00010BD00005800002070B504462546681E11
:104B0000B0F1807F01D301200FE0681E4FF0E0215B
:104B100048610F214FF0FF3000F060FF00204FF0A0
:104B2000E021886107200861002070BD10B5FFF703
:104B3000D1FF10BD70477047024600BF92F83C009D
:104B4000012801D102207047012082F83C0000BFFB
:104B5000022082F83D001068406820F07000136861
:104B60005860106840680B681843136858601068F4
:104B7000806820F0800013689860106880684B6837
:104B8000184313689860012082F83D0000BF0020A0
:104B900082F83C0000BF00BFD5E710B504460CB951
:104BA000012010BD94F83D0028B9002084F83C0095
:104BB000204600F00DF8022084F83D00211D2068F9
:104BC00001F052FD012084F83D000020E9E70000DB
:104BD00010B586B004461849206888422AD100BF23
:104BE0001648C06940F002001449C8610846C0690F
:104BF00000F00200019000BF00BF4FF4A0700290CF
:104C000000200390049002A90D48FEF7E7FC00BFC6
:104C10000C49486820F4406040F0E06040F4406097
:104C2000486000BF002203211D20FEF724FF1D2045
:104C3000FEF714FF06B010BD000400400010024053
:104C400000100140000001402DE9F04104460D46EE
:104C5000002600BF94F83C00012802D10220BDE8E4
:104C6000F081012084F83C0000BF022084F83D0060
:104C70002068866826F0770626F47F4620688660DE
:104C8000286850283BD00CDC202860D004DC0028A9
:104C900053D0102865D155E030285DD0402860D130
:104CA00041E0602835D070280DD0B0F5805F03D08A
:104CB000B0F5005F55D115E02068806820F007004E
:104CC000216888604EE0D5E902136A68206801F027
:104CD00025FD2068866826F0770646F0770620686E
:104CE00086603FE0D5E902136A68206801F016FD8E
:104CF0002068806840F480402168886032E0EA687B
:104D00006968206801F020FD5021206801F012FD43
:104D100028E0EA686968206801F06CFD602120687D
:104D200001F008FD1EE0EA686968206801F00CFDEA
:104D30004021206801F0FEFC14E00021206801F011
:104D4000F9FC0FE01021206801F0F4FC0AE02021BA
:104D5000206801F0EFFC05E03021206801F0EAFC5A
:104D600000E000BF00BF012084F83D0000BF00202C
:104D700084F83C0000BF00BF71E7000010B5044696
:104D8000214884423DD1207F04281CD1022003F019
:104D90003FFB4FF480711D48FEF7C0FD012800D095
:104DA00010BD1B480068401C19490860194800786C
:104DB00040F00100174908701748007840F00200E1
:104DC000154908701DE0207F01281AD1022003F048
:104DD0001FFB40210D48FEF7A1FD012800D0DFE7B1
:104DE0000E480068401C0D4908600A48007840F0F1
:104DF0000200084908700848007840F0020006499F
:104E0000087000BFCCE700007003002000100140D4
:104E1000240000203D0000203C000020280000204D
:104E20002DE9F04104460D46164600BF94F83C00BB
:104E3000012802D10220BDE8F081012084F83C0065
:104E400000BF022084F83D0096B9EB68D5E9001256
:104E5000206801F08FFC2068806920F00C00216838
:104E6000886120688069A9680843216888613DE0FD
:104E7000042E13D1EB68D5E90012206801F0D0FCB4
:104E80002068806920F4406021688861206880691A
:104E9000A96840EA01202168886127E0082E12D124
:104EA000EB68D5E90012206801F0D9FC2068C069E0
:104EB00020F00C002168C8612068C069A968084317
:104EC0002168C86112E0EB68D5E90012206801F0A2
:104ED000E4FC2068C06920F440602168C861206853
:104EE000C069A96840EA01202168C861012084F8EE
:104EF0003D0000BF002084F83C0000BF00BF9AE7DF
:104F000010B504460CB9012010BD94F83D0028B935
:104F1000002084F83C00204600F00CF8022084F8C1
:104F20003D00211D206801F09FFB012084F83D0019
:104F30000020E9E7704730B504460D4635B1042D31
:104F40000BD0082D10D00C2D1CD114E02068C068A7
:104F500040F002002168C86015E02068C06840F099
:104F600004002168C8600EE02068C06840F00800B6
:104F70002168C86007E02068C06840F01000216820
:104F8000C86000E000BF00BF01222946206801F090
:104F9000B7FB2068006840F001002168086000202D
:104FA00030BD10B5044620680069C0F34000D8B198
:104FB0002068C068C0F34000B0B16FF00200216803
:104FC0000861012020772068806900F0030018B193
:104FD0002046FFF7D3FE05E0204600F0ADF820465E
:104FE00000F0ABF80020207720680069C0F3800053
:104FF000D8B12068C068C0F38000B0B16FF0040081
:1050000021680861022020772068806900F44070E0
:1050100018B12046FFF7B2FE05E0204600F08CF8FC
:10502000204600F08AF80020207720680069C0F34D
:10503000C000D8B12068C068C0F3C000B0B16FF044
:10504000080021680861042020772068C06900F00A
:10505000030018B12046FFF791FE05E0204600F05E
:105060006BF8204600F069F800202077206800697E
:10507000C0F30010D8B12068C068C0F30010B0B110
:105080006FF0100021680861082020772068C0694F
:1050900000F4407018B12046FFF770FE05E020468E
:1050A00000F04AF8204600F048F8002020772068F9
:1050B000006900F0010058B12068C06800F00100EC
:1050C00030B16FF0010021680861204600F036F829
:1050D00020680069C0F3C01058B12068C068C0F3F0
:1050E000C01030B16FF08000216808612046FFF7E2
:1050F00021FD20680069C0F3801058B12068C068A5
:10510000C0F3801030B16FF0400021680861204684
:1051100000F015F820680069C0F3401058B120680D
:10512000C068C0F3401030B16FF020002168086102
:105130002046FFF700FD10BD70477047704770476D
:1051400010B504460A48844205D10A48007840F068
:105150008000084908700848844208D10748084A76
:10516000127800EB02111022204600F095F910BDD4
:1051700030040020CE020020B0030020700F002079
:10518000C502002001460022002391F8392091F841
:105190003A3042EA030070472DE9F04704462068A0
:1051A00005682068C668206847694FF00008C14656
:1051B00005F00F08B8F1000F0AD105F0200038B152
:1051C00006F0200020B1204601F0BAFBBDE8F087D0
:1051D000B8F1000F6DD007F0010018B906F4907017
:1051E000002866D005F0010030B106F4807018B1D7
:1051F000E06B40F00100E06305F0040030B107F01F
:10520000010018B1E06B40F00200E06305F002001D
:1052100030B107F0010018B1E06B40F00400E0632A
:1052200005F0080030B107F0010018B1E06B40F064
:105230000800E063E06B68B305F0200028B106F0D9
:10524000200010B1204601F07BFB20684069C0F3CC
:105250008019E06B00F0080010B9B9F1000F22D0FE
:10526000204601F04DFB2068406900F04000B0B1DD
:105270002068406920F0400021684861606B50B1AF
:105280001748616B4863606BFEF702F810B1606B02
:10529000416B88470CE02046FFF752FF08E02046AC
:1052A000FFF74EFF04E02046FFF74AFF0020E063CF
:1052B0008CE705F0800030B106F0800018B1204680
:1052C00001F076FC82E705F0400030B106F04000C6
:1052D00018B1204601F024FB78E700BF76E7000014
:1052E000ED68000810B504460CB9012010BDA06996
:1052F00000B100E000BF94F8390028B9002084F81C
:105300003800204600F028F8242084F8390020686E
:10531000C06820F400502168C860204601F064FB9A
:105320002068006920F49040216808612068406985
:1053300020F02A00216848612068C06840F40050CD
:105340002168C8600020E063202084F8390084F8D8
:105350003A000020CAE7000010B586B0044647496D
:10536000206888422AD100BF4548C06940F4002027
:105370004349C8610846C06900F40020019000BF9D
:1053800000BF08150290022003900320059002A997
:105390003C48FEF723F94FF4006002900020039090
:1053A000049002A93748FEF719F90022022134209F
:1053B000FEF761FB3420FEF751FB5CE032492068C8
:1053C00088422AD100BF2E48806940F480402C4991
:1053D00088610846806900F48040019000BF00BFEA
:1053E00048150290022003900320059002A9274847
:1053F000FEF7F4F84FF480600290002003900490D0
:1054000002A92248FEF7EAF8002202212520FEF731
:1054100032FB2520FEF722FB2DE01D492068884243
:1054200029D100BF1648C06940F480201449C861E2
:105430000846C06900F48020019000BF00BF081535
:105440000290022003900320059002A91148FEF764
:10545000C5F84FF40060029000200390049002A968
:105460000C48FEF7BBF8002202212720FEF703FBC1
:105470002720FEF7F3FA06B010BD0000004C0040F4
:1054800000100240001001400038014000080140B7
:1054900000480040000C014010B5034693F83A0064
:1054A00020282FD101B10AB9012010BD00BF93F807
:1054B0003800012801D10220F7E7012083F83800E5
:1054C00000BF99629A85DA850020D863222083F88C
:1054D0003A0000BF002083F8380000BF1868C06899
:1054E00040F480701C68E0601868406940F001007A
:1054F0001C6860611868C06840F020001C68E060AB
:105500000020D2E70220D0E710B5044613488442B9
:1055100019D113480078401CC0B2114908701028F6
:1055200001D1002008700F48007840F001000D49BB
:1055300008700D480A4A127800EB0211102220462A
:10554000FFF7AAFF08E00948844205D1084800781F
:1055500040F001000649087010BD0000B0030020B3
:10556000C5020020C4020020700F0020300400207B
:10557000CE02002010B5034693F83900202823D12D
:1055800001B10AB9012010BD00BF93F8380001280D
:1055900001D10220F7E7012083F8380000BF19622B
:1055A0009A84DA840020D863212083F8390000BF70
:1055B000002083F8380000BF1868C06840F0800001
:1055C0001C68E0600020DEE70220DCE70249884238
:1055D00000D100BF704700003004002000BFFEE78C
:1055E00010B50648064908600846FDF729FE18B1BF
:1055F000FD2104A001F098FD10BD00000030024024
:10560000100000202E2E2F5372632F6D61696E2EB5
:105610006300000000B585B000BF4E48806940F0CF
:1056200010004C4988610846806900F01000009025
:1056300000BF00BF00BF0846806940F020008861BD
:105640000846806900F02000009000BF00BF00BF46
:105650000846806940F0040088610846806900F0CF
:105660000400009000BF00BF00BF0846806940F002
:10567000080088610846806900F00800009000BFBB
:1056800000BF0022C0213448FEF750F9002230212B
:105690003248FEF74BF9002241F201013048FEF793
:1056A00045F9C0200190012002900220049001A938
:1056B0002948FDF793FF302001900120029002203D
:1056C000049001A92548FDF789FF41F201000190EE
:1056D000012002900220049001A92148FDF77EFFDD
:1056E0004FF4807001901F4802900020039001A9A0
:1056F0001948FDF773FF042001901B480290002019
:10570000039001A91948FDF769FF4FF41470019047
:10571000144802900020039001A91148FDF75EFF94
:10572000002203210820FEF7A6F90820FEF796F9CB
:10573000002203210A20FEF79EF90A20FEF78EF9C7
:10574000002203211720FEF796F91720FEF786F9AD
:1057500005B000BD001002400008014000100140EB
:10576000000C014000001110000031100014014035
:1057700010B50F480F4908604FF48270486000214F
:105780000C488160C160016141614FF40071816129
:105790000021C1610162416281620A21C162FFF799
:1057A0001DF820B14FF4917103A001F0BDFC10BDB4
:1057B00000380040180300202E2E2F5372632F6DE7
:1057C00061696E2E6300000000B58BB02C482D4936
:1057D00008600020486000212A4881604FF40041A1
:1057E000C160C911016180218161FFF7D6F920B143
:1057F00040F2371124A001F097FC4FF4805007903D
:1058000007A92048FFF720FA20B140F23D111EA061
:1058100001F08AFC1B48FFF773FB20B14FF4A17124
:1058200019A001F081FC00200590069005A91548FB
:10583000FFF782F920B140F2491113A001F074FC86
:10584000002001900120029000200390049000228B
:1058500001A90C48FFF7E4FA20B14FF4A9710AA09E
:1058600001F062FC082201A90648FFF7D9FA20B12D
:1058700040F2571104A001F057FC0BB000BD00002E
:1058800000040040700300202E2E2F5372632F6DF2
:1058900061696E2E6300000010B50C480C49086069
:1058A0004FF416504860002109488160C1600161D1
:1058B0000C21416100218161C161FFF713FD20B11D
:1058C0004FF4B57103A001F02FFC10BD004C004057
:1058D000B00300202E2E2F5372632F6D61696E2E40
:1058E0006300000010B50C480C4908604FF4E1302B
:1058F0004860002109488160C16001610C2141615B
:1059000000218161C161FFF7EDFC20B140F27D1102
:1059100003A001F009FC10BD00380140F003002095
:105920002E2E2F5372632F6D61696E2E630000005F
:1059300010B50C480C4908604FF4E1304860002174
:1059400009488160C16001610C21416100218161D0
:10595000C161FFF7C7FC20B14FF4C87103A001F08B
:10596000E3FB10BD00480040300400202E2E2F53D2
:1059700072632F6D61696E2E6300000010B50B48D5
:105980000B49086008204860022109488160032112
:10599000C16000218161C1610162FEF7C0F920B1DF
:1059A0004FF4D17103A001F0BFFB10BD005C0040BB
:1059B000700400202E2E2F5372632F6D61696E2E9E
:1059C0006300000000BFFEE7704700000248006867
:1059D000C0F30220704700000CED00E010B5002875
:1059E00007DA0A07140E054A00F00F031B1FD454F0
:1059F00003E00A07130E024A135410BD18ED00E02D
:105A000000E400E02DE9FC410546002400270026C3
:105A10000020019000900CE2BDF8040000F00F0699
:105A2000002E7DD1BDF8040000F0100088BB28686E
:105A3000008848F60F7108402968088005F128049D
:105A40002868B0F85010207801EBC000801C29684D
:105A500001F5806131F81000C0F30900E061E169EF
:105A600060690844606100212846FEF757F895F800
:105A700024000028CFD0A0690028CCD195F82400BC
:105A800040F080002968A1F84C00002085F824002F
:105A9000CFE1FFE705F50A74286800880090BDF89B
:105AA000000000F4006018B32868B0F850102078A7
:105AB00001EBC000801D296801F5806131F81000FC
:105AC000C0F30900E061A18B8BB2A28805F22C41E2
:105AD000286801F08CFA28680088C0F30E0048F6A8
